{
  "_format": "hh3-artifact-1",
  "contractName": "ContentStore",
  "sourceName": "contracts/ContentStore.sol",
  "abi": [
    {
      "anonymous": false,
      "inputs": [
        {
          "indexed": true,
          "internalType": "uint256",
          "name": "id",
          "type": "uint256"
        },
        {
          "indexed": false,
          "internalType": "string",
          "name": "cid",
          "type": "string"
        }
      ],
      "name": "CIDStored",
      "type": "event"
    },
    {
      "inputs": [
        {
          "internalType": "uint256",
          "name": "",
          "type": "uint256"
        }
      ],
      "name": "cidOf",
      "outputs": [
        {
          "internalType": "string",
          "name": "",
          "type": "string"
        }
      ],
      "stateMutability": "view",
      "type": "function"
    },
    {
      "inputs": [
        {
          "internalType": "uint256",
          "name": "id",
          "type": "uint256"
        }
      ],
      "name": "getCID",
      "outputs": [
        {
          "internalType": "string",
          "name": "",
          "type": "string"
        }
      ],
      "stateMutability": "view",
      "type": "function"
    },
    {
      "inputs": [
        {
          "internalType": "uint256",
          "name": "id",
          "type": "uint256"
        },
        {
          "internalType": "string",
          "name": "cid",
          "type": "string"
        }
      ],
      "name": "storeCID",
      "outputs": [],
      "stateMutability": "nonpayable",
      "type": "function"
    }
  ],
  "bytecode": "0x6080604052348015600e575f5ffd5b5061049b8061001c5f395ff3fe608060405234801561000f575f5ffd5b506004361061003f575f3560e01c806337d1716e146100435780634d0917fd14610058578063913a2ffe14610081575b5f5ffd5b610056610051366004610222565b610094565b005b61006b610066366004610299565b6100ec565b60405161007891906102b0565b60405180910390f35b61006b61008f366004610299565b610183565b5f8381526020819052604090206100ac82848361037d565b50827f2006b4f779a1367a680bc9e60455e96d1e7402f9c14f50f1440ec9f0f014591083836040516100df929190610437565b60405180910390a2505050565b5f6020819052908152604090208054610104906102f9565b80601f0160208091040260200160405190810160405280929190818152602001828054610130906102f9565b801561017b5780601f106101525761010080835404028352916020019161017b565b820191905f5260205f20905b81548152906001019060200180831161015e57829003601f168201915b505050505081565b5f81815260208190526040902080546060919061019f906102f9565b80601f01602080910402602001604051908101604052809291908181526020018280546101cb906102f9565b80156102165780601f106101ed57610100808354040283529160200191610216565b820191905f5260205f20905b8154815290600101906020018083116101f957829003601f168201915b50505050509050919050565b5f5f5f60408486031215610234575f5ffd5b83359250602084013567ffffffffffffffff811115610251575f5ffd5b8401601f81018613610261575f5ffd5b803567ffffffffffffffff811115610277575f5ffd5b866020828401011115610288575f5ffd5b939660209190910195509293505050565b5f602082840312156102a9575f5ffd5b5035919050565b602081525f82518060208401528060208501604085015e5f604082850101526040601f19601f83011684010191505092915050565b634e487b7160e01b5f52604160045260245ffd5b600181811c9082168061030d57607f821691505b60208210810361032b57634e487b7160e01b5f52602260045260245ffd5b50919050565b601f82111561037857805f5260205f20601f840160051c810160208510156103565750805b601f840160051c820191505b81811015610375575f8155600101610362565b50505b505050565b67ffffffffffffffff831115610395576103956102e5565b6103a9836103a383546102f9565b83610331565b5f601f8411600181146103da575f85156103c35750838201355b5f19600387901b1c1916600186901b178355610375565b5f83815260208120601f198716915b8281101561040957868501358255602094850194600190920191016103e9565b5086821015610425575f1960f88860031b161c19848701351681555b505060018560011b0183555050505050565b60208152816020820152818360408301375f818301604090810191909152601f909201601f1916010191905056fea2646970667358221220a386cae240ca6702b54d34bd893da0ff78e31ba6f6527056de92d4cc83af9ae164736f6c634300081c0033",
  "linkReferences": {},
  "deployedLinkReferences": {},
  "immutableReferences": {},
  "inputSourceName": "project/contracts/ContentStore.sol",
  "buildInfoId": "solc-0_8_28-6eef1c0c84adc006bac56ae771a6971598cef5e4"
}