{
  "_format": "hh3-artifact-1",
  "contractName": "RatingSystem",
  "sourceName": "contracts/RatingSystem.sol",
  "abi": [
    {
      "anonymous": false,
      "inputs": [
        {
          "indexed": true,
          "internalType": "uint256",
          "name": "itemId",
          "type": "uint256"
        },
        {
          "indexed": false,
          "internalType": "uint8",
          "name": "rating",
          "type": "uint8"
        },
        {
          "indexed": false,
          "internalType": "address",
          "name": "rater",
          "type": "address"
        }
      ],
      "name": "RatingSubmitted",
      "type": "event"
    },
    {
      "inputs": [
        {
          "internalType": "uint256",
          "name": "_itemId",
          "type": "uint256"
        }
      ],
      "name": "getAverageRating",
      "outputs": [
        {
          "internalType": "uint256",
          "name": "",
          "type": "uint256"
        }
      ],
      "stateMutability": "view",
      "type": "function"
    },
    {
      "inputs": [
        {
          "internalType": "uint256",
          "name": "",
          "type": "uint256"
        }
      ],
      "name": "numRatings",
      "outputs": [
        {
          "internalType": "uint256",
          "name": "",
          "type": "uint256"
        }
      ],
      "stateMutability": "view",
      "type": "function"
    },
    {
      "inputs": [
        {
          "internalType": "uint256",
          "name": "_itemId",
          "type": "uint256"
        },
        {
          "internalType": "uint8",
          "name": "_rating",
          "type": "uint8"
        }
      ],
      "name": "submitRating",
      "outputs": [],
      "stateMutability": "nonpayable",
      "type": "function"
    },
    {
      "inputs": [
        {
          "internalType": "uint256",
          "name": "",
          "type": "uint256"
        }
      ],
      "name": "totalScores",
      "outputs": [
        {
          "internalType": "uint256",
          "name": "",
          "type": "uint256"
        }
      ],
      "stateMutability": "view",
      "type": "function"
    }
  ],
  "bytecode": "0x6080604052348015600e575f5ffd5b506102d48061001c5f395ff3fe608060405234801561000f575f5ffd5b506004361061004a575f3560e01c8063157775df1461004e57806317b7e03e1461007f578063514bf8cf1461009257806378bd80b6146100b1575b5f5ffd5b61006d61005c3660046101f6565b5f6020819052908152604090205481565b60405190815260200160405180910390f35b61006d61008d3660046101f6565b6100c6565b61006d6100a03660046101f6565b60016020525f908152604090205481565b6100c46100bf36600461020d565b61010a565b005b5f8181526001602052604081205481036100e157505f919050565b5f8281526001602090815260408083205491839052909120546101049190610254565b92915050565b60018160ff1610158015610122575060058160ff1611155b6101725760405162461bcd60e51b815260206004820152601e60248201527f526174696e67206d757374206265206265747765656e203120616e6420350000604482015260640160405180910390fd5b5f828152602081905260408120805460ff84169290610192908490610273565b90915550505f8281526001602052604081208054916101b083610286565b90915550506040805160ff8316815233602082015283917feac902bdb0d3f4c7fe0f633169748d4791d90e369f5dfe7fd54362dc87b9ef89910160405180910390a25050565b5f60208284031215610206575f5ffd5b5035919050565b5f5f6040838503121561021e575f5ffd5b82359150602083013560ff81168114610235575f5ffd5b809150509250929050565b634e487b7160e01b5f52601160045260245ffd5b5f8261026e57634e487b7160e01b5f52601260045260245ffd5b500490565b8082018082111561010457610104610240565b5f6001820161029757610297610240565b506001019056fea2646970667358221220243813158a063910a70c65bfb225ea7fc810a78d8622aaa774945779b0797ce364736f6c634300081c0033",
  "linkReferences": {},
  "deployedLinkReferences": {},
  "immutableReferences": {},
  "inputSourceName": "project/contracts/RatingSystem.sol",
  "buildInfoId": "solc-0_8_28-1ab8f1e3f3e7739d8ef839c27e86aded0ad99f6a"
}